{
  "_format": "hh-sol-artifact-1",
  "contractName": "MyEpicNFT",
  "sourceName": "contracts/MyEpicNFT.sol",
  "abi": [
    {
      "inputs": [],
      "stateMutability": "nonpayable",
      "type": "constructor"
    },
    {
      "anonymous": false,
      "inputs": [
        {
          "indexed": true,
          "internalType": "address",
          "name": "owner",
          "type": "address"
        },
        {
          "indexed": true,
          "internalType": "address",
          "name": "approved",
          "type": "address"
        },
        {
          "indexed": true,
          "internalType": "uint256",
          "name": "tokenId",
          "type": "uint256"
        }
      ],
      "name": "Approval",
      "type": "event"
    },
    {
      "anonymous": false,
      "inputs": [
        {
          "indexed": true,
          "internalType": "address",
          "name": "owner",
          "type": "address"
        },
        {
          "indexed": true,
          "internalType": "address",
          "name": "operator",
          "type": "address"
        },
        {
          "indexed": false,
          "internalType": "bool",
          "name": "approved",
          "type": "bool"
        }
      ],
      "name": "ApprovalForAll",
      "type": "event"
    },
    {
      "anonymous": false,
      "inputs": [
        {
          "indexed": false,
          "internalType": "address",
          "name": "sender",
          "type": "address"
        },
        {
          "indexed": false,
          "internalType": "uint256",
          "name": "tokenId",
          "type": "uint256"
        }
      ],
      "name": "NewEpicNFTMinted",
      "type": "event"
    },
    {
      "anonymous": false,
      "inputs": [
        {
          "indexed": true,
          "internalType": "address",
          "name": "from",
          "type": "address"
        },
        {
          "indexed": true,
          "internalType": "address",
          "name": "to",
          "type": "address"
        },
        {
          "indexed": true,
          "internalType": "uint256",
          "name": "tokenId",
          "type": "uint256"
        }
      ],
      "name": "Transfer",
      "type": "event"
    },
    {
      "inputs": [
        {
          "internalType": "address",
          "name": "to",
          "type": "address"
        },
        {
          "internalType": "uint256",
          "name": "tokenId",
          "type": "uint256"
        }
      ],
      "name": "approve",
      "outputs": [],
      "stateMutability": "nonpayable",
      "type": "function"
    },
    {
      "inputs": [
        {
          "internalType": "address",
          "name": "owner",
          "type": "address"
        }
      ],
      "name": "balanceOf",
      "outputs": [
        {
          "internalType": "uint256",
          "name": "",
          "type": "uint256"
        }
      ],
      "stateMutability": "view",
      "type": "function"
    },
    {
      "inputs": [
        {
          "internalType": "uint256",
          "name": "tokenId",
          "type": "uint256"
        }
      ],
      "name": "getApproved",
      "outputs": [
        {
          "internalType": "address",
          "name": "",
          "type": "address"
        }
      ],
      "stateMutability": "view",
      "type": "function"
    },
    {
      "inputs": [
        {
          "internalType": "address",
          "name": "owner",
          "type": "address"
        },
        {
          "internalType": "address",
          "name": "operator",
          "type": "address"
        }
      ],
      "name": "isApprovedForAll",
      "outputs": [
        {
          "internalType": "bool",
          "name": "",
          "type": "bool"
        }
      ],
      "stateMutability": "view",
      "type": "function"
    },
    {
      "inputs": [],
      "name": "makeAnEpicNFT",
      "outputs": [],
      "stateMutability": "nonpayable",
      "type": "function"
    },
    {
      "inputs": [],
      "name": "name",
      "outputs": [
        {
          "internalType": "string",
          "name": "",
          "type": "string"
        }
      ],
      "stateMutability": "view",
      "type": "function"
    },
    {
      "inputs": [
        {
          "internalType": "uint256",
          "name": "tokenId",
          "type": "uint256"
        }
      ],
      "name": "ownerOf",
      "outputs": [
        {
          "internalType": "address",
          "name": "",
          "type": "address"
        }
      ],
      "stateMutability": "view",
      "type": "function"
    },
    {
      "inputs": [
        {
          "internalType": "uint256",
          "name": "tokenId",
          "type": "uint256"
        }
      ],
      "name": "pickRandomColor",
      "outputs": [
        {
          "internalType": "string",
          "name": "",
          "type": "string"
        }
      ],
      "stateMutability": "view",
      "type": "function"
    },
    {
      "inputs": [
        {
          "internalType": "uint256",
          "name": "tokenId",
          "type": "uint256"
        }
      ],
      "name": "pickRandomFirstWord",
      "outputs": [
        {
          "internalType": "string",
          "name": "",
          "type": "string"
        }
      ],
      "stateMutability": "view",
      "type": "function"
    },
    {
      "inputs": [
        {
          "internalType": "uint256",
          "name": "tokenId",
          "type": "uint256"
        }
      ],
      "name": "pickRandomSecondWord",
      "outputs": [
        {
          "internalType": "string",
          "name": "",
          "type": "string"
        }
      ],
      "stateMutability": "view",
      "type": "function"
    },
    {
      "inputs": [
        {
          "internalType": "uint256",
          "name": "tokenId",
          "type": "uint256"
        }
      ],
      "name": "pickRandomThirdWord",
      "outputs": [
        {
          "internalType": "string",
          "name": "",
          "type": "string"
        }
      ],
      "stateMutability": "view",
      "type": "function"
    },
    {
      "inputs": [
        {
          "internalType": "address",
          "name": "from",
          "type": "address"
        },
        {
          "internalType": "address",
          "name": "to",
          "type": "address"
        },
        {
          "internalType": "uint256",
          "name": "tokenId",
          "type": "uint256"
        }
      ],
      "name": "safeTransferFrom",
      "outputs": [],
      "stateMutability": "nonpayable",
      "type": "function"
    },
    {
      "inputs": [
        {
          "internalType": "address",
          "name": "from",
          "type": "address"
        },
        {
          "internalType": "address",
          "name": "to",
          "type": "address"
        },
        {
          "internalType": "uint256",
          "name": "tokenId",
          "type": "uint256"
        },
        {
          "internalType": "bytes",
          "name": "_data",
          "type": "bytes"
        }
      ],
      "name": "safeTransferFrom",
      "outputs": [],
      "stateMutability": "nonpayable",
      "type": "function"
    },
    {
      "inputs": [
        {
          "internalType": "address",
          "name": "operator",
          "type": "address"
        },
        {
          "internalType": "bool",
          "name": "approved",
          "type": "bool"
        }
      ],
      "name": "setApprovalForAll",
      "outputs": [],
      "stateMutability": "nonpayable",
      "type": "function"
    },
    {
      "inputs": [
        {
          "internalType": "bytes4",
          "name": "interfaceId",
          "type": "bytes4"
        }
      ],
      "name": "supportsInterface",
      "outputs": [
        {
          "internalType": "bool",
          "name": "",
          "type": "bool"
        }
      ],
      "stateMutability": "view",
      "type": "function"
    },
    {
      "inputs": [],
      "name": "symbol",
      "outputs": [
        {
          "internalType": "string",
          "name": "",
          "type": "string"
        }
      ],
      "stateMutability": "view",
      "type": "function"
    },
    {
      "inputs": [
        {
          "internalType": "uint256",
          "name": "tokenId",
          "type": "uint256"
        }
      ],
      "name": "tokenURI",
      "outputs": [
        {
          "internalType": "string",
          "name": "",
          "type": "string"
        }
      ],
      "stateMutability": "view",
      "type": "function"
    },
    {
      "inputs": [
        {
          "internalType": "address",
          "name": "from",
          "type": "address"
        },
        {
          "internalType": "address",
          "name": "to",
          "type": "address"
        },
        {
          "internalType": "uint256",
          "name": "tokenId",
          "type": "uint256"
        }
      ],
      "name": "transferFrom",
      "outputs": [],
      "stateMutability": "nonpayable",
      "type": "function"
    }
  ],
  "bytecode": "0x608060405260405180610100016040528060d381526020016200452b60d3913960089080519060200190620000369291906200082c565b50604051806080016040528060568152602001620045fe6056913960099080519060200190620000689291906200082c565b506040518060c001604052806040518060400160405280600681526020017f697461636869000000000000000000000000000000000000000000000000000081525081526020016040518060400160405280600581526020017f646973636f00000000000000000000000000000000000000000000000000000081525081526020016040518060400160405280600a81526020017f646567656e65726174650000000000000000000000000000000000000000000081525081526020016040518060400160405280600981526020017f737570657273746172000000000000000000000000000000000000000000000081525081526020016040518060400160405280600a81526020017f76756e6465726b696e640000000000000000000000000000000000000000000081525081526020016040518060400160405280600581526020017f736e617065000000000000000000000000000000000000000000000000000000815250815250600a906006620001e6929190620008bd565b506040518060c001604052806040518060400160405280600881526020017f72656c656761746500000000000000000000000000000000000000000000000081525081526020016040518060400160405280600a81526020017f6d616e636865737465720000000000000000000000000000000000000000000081525081526020016040518060400160405280600681526020017f756e69746564000000000000000000000000000000000000000000000000000081525081526020016040518060400160405280600c81526020017f6368616d70696f6e73686970000000000000000000000000000000000000000081525081526020016040518060400160405280600481526020017f6c6f72640000000000000000000000000000000000000000000000000000000081525081526020016040518060400160405280600481526020017f7061696e00000000000000000000000000000000000000000000000000000000815250815250600b90600662000364929190620008bd565b506040518060c001604052806040518060400160405280600881526020017f736572656e61646500000000000000000000000000000000000000000000000081525081526020016040518060400160405280600581526020017f686172727900000000000000000000000000000000000000000000000000000081525081526020016040518060400160405280600481526020017f79756e6f0000000000000000000000000000000000000000000000000000000081525081526020016040518060400160405280600681526020017f626574746572000000000000000000000000000000000000000000000000000081525081526020016040518060400160405280600481526020017f7468616e0000000000000000000000000000000000000000000000000000000081525081526020016040518060400160405280600681526020017f6a756c6975730000000000000000000000000000000000000000000000000000815250815250600c906006620004e2929190620008bd565b506040518060c001604052806040518060400160405280600381526020017f726564000000000000000000000000000000000000000000000000000000000081525081526020016040518060400160405280600781526020017f233038433241380000000000000000000000000000000000000000000000000081525081526020016040518060400160405280600581526020017f626c61636b00000000000000000000000000000000000000000000000000000081525081526020016040518060400160405280600681526020017f79656c6c6f77000000000000000000000000000000000000000000000000000081525081526020016040518060400160405280600481526020017f626c75650000000000000000000000000000000000000000000000000000000081525081526020016040518060400160405280600581526020017f677265656e000000000000000000000000000000000000000000000000000000815250815250600d90600662000660929190620008bd565b503480156200066e57600080fd5b506040518060400160405280600981526020017f5371756172654e465400000000000000000000000000000000000000000000008152506040518060400160405280600681526020017f53515541524500000000000000000000000000000000000000000000000000008152508160009080519060200190620006f39291906200082c565b5080600190805190602001906200070c9291906200082c565b5050506200075a6040518060400160405280601a81526020017f546869732074696d652077657265206d616b696e67206e6674730000000000008152506200076060201b620013951760201c565b62000ade565b6200080081604051602401620007779190620009f2565b6040516020818303038152906040527f41304fac000000000000000000000000000000000000000000000000000000007bffffffffffffffffffffffffffffffffffffffffffffffffffffffff19166020820180517bffffffffffffffffffffffffffffffffffffffffffffffffffffffff83818316178352505050506200080360201b60201c565b50565b60008151905060006a636f6e736f6c652e6c6f679050602083016000808483855afa5050505050565b8280546200083a9062000a68565b90600052602060002090601f0160209004810192826200085e5760008555620008aa565b82601f106200087957805160ff1916838001178555620008aa565b82800160010185558215620008aa579182015b82811115620008a95782518255916020019190600101906200088c565b5b509050620008b9919062000924565b5090565b82805482825590600052602060002090810192821562000911579160200282015b8281111562000910578251829080519060200190620008ff9291906200082c565b5091602001919060010190620008de565b5b50905062000920919062000943565b5090565b5b808211156200093f57600081600090555060010162000925565b5090565b5b808211156200096757600081816200095d91906200096b565b5060010162000944565b5090565b508054620009799062000a68565b6000825580601f106200098d5750620009ae565b601f016020900490600052602060002090810190620009ad919062000924565b5b50565b6000620009be8262000a16565b620009ca818562000a21565b9350620009dc81856020860162000a32565b620009e78162000acd565b840191505092915050565b6000602082019050818103600083015262000a0e8184620009b1565b905092915050565b600081519050919050565b600082825260208201905092915050565b60005b8381101562000a5257808201518184015260208101905062000a35565b8381111562000a62576000848401525b50505050565b6000600282049050600182168062000a8157607f821691505b6020821081141562000a985762000a9762000a9e565b5b50919050565b7f4e487b7100000000000000000000000000000000000000000000000000000000600052602260045260246000fd5b6000601f19601f8301169050919050565b613a3d8062000aee6000396000f3fe608060405234801561001057600080fd5b50600436106101165760003560e01c806370a08231116100a2578063b88d4fde11610071578063b88d4fde14610317578063c575757a14610333578063c87b56dd14610363578063de9d132f14610393578063e985e9c51461039d57610116565b806370a082311461027d57806395d89b41146102ad578063a22cb465146102cb578063b187301f146102e757610116565b806323b872dd116100e957806323b872dd146101b55780632de38d68146101d157806342842e0e14610201578063514dc8c61461021d5780636352211e1461024d57610116565b806301ffc9a71461011b57806306fdde031461014b578063081812fc14610169578063095ea7b314610199575b600080fd5b61013560048036038101906101309190612615565b6103cd565b60405161014291906132b3565b60405180910390f35b6101536104af565b60405161016091906132ce565b60405180910390f35b610183600480360381019061017e9190612667565b610541565b6040516101909190613223565b60405180910390f35b6101b360048036038101906101ae91906125d9565b6105c6565b005b6101cf60048036038101906101ca91906124d3565b6106de565b005b6101eb60048036038101906101e69190612667565b61073e565b6040516101f891906132ce565b60405180910390f35b61021b600480360381019061021691906124d3565b61085c565b005b61023760048036038101906102329190612667565b61087c565b60405161024491906132ce565b60405180910390f35b61026760048036038101906102629190612667565b61099a565b6040516102749190613223565b60405180910390f35b6102976004803603810190610292919061246e565b610a4c565b6040516102a4919061352e565b60405180910390f35b6102b5610b04565b6040516102c291906132ce565b60405180910390f35b6102e560048036038101906102e0919061259d565b610b96565b005b61030160048036038101906102fc9190612667565b610d17565b60405161030e91906132ce565b60405180910390f35b610331600480360381019061032c9190612522565b610e35565b005b61034d60048036038101906103489190612667565b610e97565b60405161035a91906132ce565b60405180910390f35b61037d60048036038101906103789190612667565b610fb5565b60405161038a91906132ce565b60405180910390f35b61039b611107565b005b6103b760048036038101906103b29190612497565b611301565b6040516103c491906132b3565b60405180910390f35b60007f80ac58cd000000000000000000000000000000000000000000000000000000007bffffffffffffffffffffffffffffffffffffffffffffffffffffffff1916827bffffffffffffffffffffffffffffffffffffffffffffffffffffffff1916148061049857507f5b5e139f000000000000000000000000000000000000000000000000000000007bffffffffffffffffffffffffffffffffffffffffffffffffffffffff1916827bffffffffffffffffffffffffffffffffffffffffffffffffffffffff1916145b806104a857506104a78261142e565b5b9050919050565b6060600080546104be906137cd565b80601f01602080910402602001604051908101604052809291908181526020018280546104ea906137cd565b80156105375780601f1061050c57610100808354040283529160200191610537565b820191906000526020600020905b81548152906001019060200180831161051a57829003601f168201915b5050505050905090565b600061054c82611498565b61058b576040517f08c379a00000000000000000000000000000000000000000000000000000000081526004016105829061348e565b60405180910390fd5b6004600083815260200190815260200160002060009054906101000a900473ffffffffffffffffffffffffffffffffffffffff169050919050565b60006105d18261099a565b90508073ffffffffffffffffffffffffffffffffffffffff168373ffffffffffffffffffffffffffffffffffffffff161415610642576040517f08c379a0000000000000000000000000000000000000000000000000000000008152600401610639906134ee565b60405180910390fd5b8073ffffffffffffffffffffffffffffffffffffffff16610661611504565b73ffffffffffffffffffffffffffffffffffffffff161480610690575061068f8161068a611504565b611301565b5b6106cf576040517f08c379a00000000000000000000000000000000000000000000000000000000081526004016106c6906133ce565b60405180910390fd5b6106d9838361150c565b505050565b6106ef6106e9611504565b826115c5565b61072e576040517f08c379a00000000000000000000000000000000000000000000000000000000081526004016107259061350e565b60405180910390fd5b6107398383836116a3565b505050565b6060600061077261074e846118ff565b60405160200161075e91906131bd565b604051602081830303815290604052611aac565b9050600a80549050816107859190613848565b9050600a81815481106107c1577f4e487b7100000000000000000000000000000000000000000000000000000000600052603260045260246000fd5b9060005260206000200180546107d6906137cd565b80601f0160208091040260200160405190810160405280929190818152602001828054610802906137cd565b801561084f5780601f106108245761010080835404028352916020019161084f565b820191906000526020600020905b81548152906001019060200180831161083257829003601f168201915b5050505050915050919050565b61087783838360405180602001604052806000815250610e35565b505050565b606060006108b061088c846118ff565b60405160200161089c9190613201565b604051602081830303815290604052611aac565b9050600d80549050816108c39190613848565b9050600d81815481106108ff577f4e487b7100000000000000000000000000000000000000000000000000000000600052603260045260246000fd5b906000526020600020018054610914906137cd565b80601f0160208091040260200160405190810160405280929190818152602001828054610940906137cd565b801561098d5780601f106109625761010080835404028352916020019161098d565b820191906000526020600020905b81548152906001019060200180831161097057829003601f168201915b5050505050915050919050565b6000806002600084815260200190815260200160002060009054906101000a900473ffffffffffffffffffffffffffffffffffffffff169050600073ffffffffffffffffffffffffffffffffffffffff168173ffffffffffffffffffffffffffffffffffffffff161415610a43576040517f08c379a0000000000000000000000000000000000000000000000000000000008152600401610a3a9061340e565b60405180910390fd5b80915050919050565b60008073ffffffffffffffffffffffffffffffffffffffff168273ffffffffffffffffffffffffffffffffffffffff161415610abd576040517f08c379a0000000000000000000000000000000000000000000000000000000008152600401610ab4906133ee565b60405180910390fd5b600360008373ffffffffffffffffffffffffffffffffffffffff1673ffffffffffffffffffffffffffffffffffffffff168152602001908152602001600020549050919050565b606060018054610b13906137cd565b80601f0160208091040260200160405190810160405280929190818152602001828054610b3f906137cd565b8015610b8c5780601f10610b6157610100808354040283529160200191610b8c565b820191906000526020600020905b815481529060010190602001808311610b6f57829003601f168201915b5050505050905090565b610b9e611504565b73ffffffffffffffffffffffffffffffffffffffff168273ffffffffffffffffffffffffffffffffffffffff161415610c0c576040517f08c379a0000000000000000000000000000000000000000000000000000000008152600401610c039061338e565b60405180910390fd5b8060056000610c19611504565b73ffffffffffffffffffffffffffffffffffffffff1673ffffffffffffffffffffffffffffffffffffffff16815260200190815260200160002060008473ffffffffffffffffffffffffffffffffffffffff1673ffffffffffffffffffffffffffffffffffffffff16815260200190815260200160002060006101000a81548160ff0219169083151502179055508173ffffffffffffffffffffffffffffffffffffffff16610cc6611504565b73ffffffffffffffffffffffffffffffffffffffff167f17307eab39ab6107e8899845ad3d59bd9653f200f220920489ca2b5937696c3183604051610d0b91906132b3565b60405180910390a35050565b60606000610d4b610d27846118ff565b604051602001610d379190613156565b604051602081830303815290604052611aac565b9050600b8054905081610d5e9190613848565b9050600b8181548110610d9a577f4e487b7100000000000000000000000000000000000000000000000000000000600052603260045260246000fd5b906000526020600020018054610daf906137cd565b80601f0160208091040260200160405190810160405280929190818152602001828054610ddb906137cd565b8015610e285780601f10610dfd57610100808354040283529160200191610e28565b820191906000526020600020905b815481529060010190602001808311610e0b57829003601f168201915b5050505050915050919050565b610e46610e40611504565b836115c5565b610e85576040517f08c379a0000000000000000000000000000000000000000000000000000000008152600401610e7c9061350e565b60405180910390fd5b610e9184848484611adf565b50505050565b60606000610ecb610ea7846118ff565b604051602001610eb79190613134565b604051602081830303815290604052611aac565b9050600c8054905081610ede9190613848565b9050600c8181548110610f1a577f4e487b7100000000000000000000000000000000000000000000000000000000600052603260045260246000fd5b906000526020600020018054610f2f906137cd565b80601f0160208091040260200160405190810160405280929190818152602001828054610f5b906137cd565b8015610fa85780601f10610f7d57610100808354040283529160200191610fa8565b820191906000526020600020905b815481529060010190602001808311610f8b57829003601f168201915b5050505050915050919050565b6060610fc082611498565b610fff576040517f08c379a0000000000000000000000000000000000000000000000000000000008152600401610ff69061346e565b60405180910390fd5b600060066000848152602001908152602001600020805461101f906137cd565b80601f016020809104026020016040519081016040528092919081815260200182805461104b906137cd565b80156110985780601f1061106d57610100808354040283529160200191611098565b820191906000526020600020905b81548152906001019060200180831161107b57829003601f168201915b5050505050905060006110a9611b3b565b90506000815114156110bf578192505050611102565b6000825111156110f45780826040516020016110dc929190613096565b60405160208183030381529060405292505050611102565b6110fd84611b52565b925050505b919050565b60006111136007611bf9565b905060006111208261073e565b9050600061112d83610d17565b9050600061113a84610e97565b90506000838383604051602001611153939291906130ba565b6040516020818303038152906040529050600061116f8661087c565b9050600060088260098560405160200161118c94939291906130eb565b604051602081830303815290604052905060006111d1846111ac84611c07565b6040516020016111bd929190613178565b604051602081830303815290604052611c07565b90506000816040516020016111e691906131df565b60405160208183030381529060405290506112356040518060400160405280601581526020017f0a2d2d2d2d2d2d2d2d2d2d2d2d2d2d2d2d2d2d2d2d0000000000000000000000815250611395565b61123e81611395565b61127c6040518060400160405280601581526020017f2d2d2d2d2d2d2d2d2d2d2d2d2d2d2d2d2d2d2d2d0a0000000000000000000000815250611395565b611286338a611db2565b6112908982611dd0565b61129a6007611e44565b6112bd6040518060600160405280602581526020016139a3602591398a33611e5a565b7febb98688741ffa4c7589bf325de30cf7becb63de567842e1ccdb6cb949fdc82c338a6040516112ee92919061328a565b60405180910390a1505050505050505050565b6000600560008473ffffffffffffffffffffffffffffffffffffffff1673ffffffffffffffffffffffffffffffffffffffff16815260200190815260200160002060008373ffffffffffffffffffffffffffffffffffffffff1673ffffffffffffffffffffffffffffffffffffffff16815260200190815260200160002060009054906101000a900460ff16905092915050565b61142b816040516024016113a991906132ce565b6040516020818303038152906040527f41304fac000000000000000000000000000000000000000000000000000000007bffffffffffffffffffffffffffffffffffffffffffffffffffffffff19166020820180517bffffffffffffffffffffffffffffffffffffffffffffffffffffffff8381831617835250505050611ef9565b50565b60007f01ffc9a7000000000000000000000000000000000000000000000000000000007bffffffffffffffffffffffffffffffffffffffffffffffffffffffff1916827bffffffffffffffffffffffffffffffffffffffffffffffffffffffff1916149050919050565b60008073ffffffffffffffffffffffffffffffffffffffff166002600084815260200190815260200160002060009054906101000a900473ffffffffffffffffffffffffffffffffffffffff1673ffffffffffffffffffffffffffffffffffffffff1614159050919050565b600033905090565b816004600083815260200190815260200160002060006101000a81548173ffffffffffffffffffffffffffffffffffffffff021916908373ffffffffffffffffffffffffffffffffffffffff160217905550808273ffffffffffffffffffffffffffffffffffffffff1661157f8361099a565b73ffffffffffffffffffffffffffffffffffffffff167f8c5be1e5ebec7d5bd14f71427d1e84f3dd0314c0f7b2291e5b200ac8c7c3b92560405160405180910390a45050565b60006115d082611498565b61160f576040517f08c379a0000000000000000000000000000000000000000000000000000000008152600401611606906133ae565b60405180910390fd5b600061161a8361099a565b90508073ffffffffffffffffffffffffffffffffffffffff168473ffffffffffffffffffffffffffffffffffffffff16148061168957508373ffffffffffffffffffffffffffffffffffffffff1661167184610541565b73ffffffffffffffffffffffffffffffffffffffff16145b8061169a57506116998185611301565b5b91505092915050565b8273ffffffffffffffffffffffffffffffffffffffff166116c38261099a565b73ffffffffffffffffffffffffffffffffffffffff1614611719576040517f08c379a0000000000000000000000000000000000000000000000000000000008152600401611710906134ae565b60405180910390fd5b600073ffffffffffffffffffffffffffffffffffffffff168273ffffffffffffffffffffffffffffffffffffffff161415611789576040517f08c379a00000000000000000000000000000000000000000000000000000000081526004016117809061336e565b60405180910390fd5b611794838383611f22565b61179f60008261150c565b6001600360008573ffffffffffffffffffffffffffffffffffffffff1673ffffffffffffffffffffffffffffffffffffffff16815260200190815260200160002060008282546117ef91906136e3565b925050819055506001600360008473ffffffffffffffffffffffffffffffffffffffff1673ffffffffffffffffffffffffffffffffffffffff16815260200190815260200160002060008282546118469190613602565b92505081905550816002600083815260200190815260200160002060006101000a81548173ffffffffffffffffffffffffffffffffffffffff021916908373ffffffffffffffffffffffffffffffffffffffff160217905550808273ffffffffffffffffffffffffffffffffffffffff168473ffffffffffffffffffffffffffffffffffffffff167fddf252ad1be2c89b69c2b068fc378daa952ba7f163c4a11628f55a4df523b3ef60405160405180910390a4505050565b60606000821415611947576040518060400160405280600181526020017f30000000000000000000000000000000000000000000000000000000000000008152509050611aa7565b600082905060005b60008214611979578080611962906137ff565b915050600a826119729190613658565b915061194f565b60008167ffffffffffffffff8111156119bb577f4e487b7100000000000000000000000000000000000000000000000000000000600052604160045260246000fd5b6040519080825280601f01601f1916602001820160405280156119ed5781602001600182028036833780820191505090505b5090505b60008514611aa057600182611a0691906136e3565b9150600a85611a159190613848565b6030611a219190613602565b60f81b818381518110611a5d577f4e487b7100000000000000000000000000000000000000000000000000000000600052603260045260246000fd5b60200101907effffffffffffffffffffffffffffffffffffffffffffffffffffffffffffff1916908160001a905350600a85611a999190613658565b94506119f1565b8093505050505b919050565b600081604051602001611abf919061307f565b6040516020818303038152906040528051906020012060001c9050919050565b611aea8484846116a3565b611af684848484611f27565b611b35576040517f08c379a0000000000000000000000000000000000000000000000000000000008152600401611b2c9061332e565b60405180910390fd5b50505050565b606060405180602001604052806000815250905090565b6060611b5d82611498565b611b9c576040517f08c379a0000000000000000000000000000000000000000000000000000000008152600401611b93906134ce565b60405180910390fd5b6000611ba6611b3b565b90506000815111611bc65760405180602001604052806000815250611bf1565b80611bd0846118ff565b604051602001611be1929190613096565b6040516020818303038152906040525b915050919050565b600081600001549050919050565b6060600082511415611c2a57604051806020016040528060008152509050611dad565b60006040518060600160405280604081526020016139c86040913990506000600360028551611c599190613602565b611c639190613658565b6004611c6f9190613689565b90506000602082611c809190613602565b67ffffffffffffffff811115611cbf577f4e487b7100000000000000000000000000000000000000000000000000000000600052604160045260246000fd5b6040519080825280601f01601f191660200182016040528015611cf15781602001600182028036833780820191505090505b509050818152600183018586518101602084015b81831015611d6c576003830192508251603f8160121c1685015160f81b8252600182019150603f81600c1c1685015160f81b8252600182019150603f8160061c1685015160f81b8252600182019150603f811685015160f81b825260018201915050611d05565b600389510660018114611d865760028114611d9657611da1565b613d3d60f01b6002830352611da1565b603d60f81b60018303525b50505050508093505050505b919050565b611dcc8282604051806020016040528060008152506120be565b5050565b611dd982611498565b611e18576040517f08c379a0000000000000000000000000000000000000000000000000000000008152600401611e0f9061342e565b60405180910390fd5b80600660008481526020019081526020016000209080519060200190611e3f9291906122fa565b505050565b6001816000016000828254019250508190555050565b611ef4838383604051602401611e72939291906132f0565b6040516020818303038152906040527fe3849f79000000000000000000000000000000000000000000000000000000007bffffffffffffffffffffffffffffffffffffffffffffffffffffffff19166020820180517bffffffffffffffffffffffffffffffffffffffffffffffffffffffff8381831617835250505050611ef9565b505050565b60008151905060006a636f6e736f6c652e6c6f679050602083016000808483855afa5050505050565b505050565b6000611f488473ffffffffffffffffffffffffffffffffffffffff16612119565b156120b1578373ffffffffffffffffffffffffffffffffffffffff1663150b7a02611f71611504565b8786866040518563ffffffff1660e01b8152600401611f93949392919061323e565b602060405180830381600087803b158015611fad57600080fd5b505af1925050508015611fde57506040513d601f19601f82011682018060405250810190611fdb919061263e565b60015b612061573d806000811461200e576040519150601f19603f3d011682016040523d82523d6000602084013e612013565b606091505b50600081511415612059576040517f08c379a00000000000000000000000000000000000000000000000000000000081526004016120509061332e565b60405180910390fd5b805181602001fd5b63150b7a0260e01b7bffffffffffffffffffffffffffffffffffffffffffffffffffffffff1916817bffffffffffffffffffffffffffffffffffffffffffffffffffffffff1916149150506120b6565b600190505b949350505050565b6120c8838361212c565b6120d56000848484611f27565b612114576040517f08c379a000000000000000000000000000000000000000000000000000000000815260040161210b9061332e565b60405180910390fd5b505050565b600080823b905060008111915050919050565b600073ffffffffffffffffffffffffffffffffffffffff168273ffffffffffffffffffffffffffffffffffffffff16141561219c576040517f08c379a00000000000000000000000000000000000000000000000000000000081526004016121939061344e565b60405180910390fd5b6121a581611498565b156121e5576040517f08c379a00000000000000000000000000000000000000000000000000000000081526004016121dc9061334e565b60405180910390fd5b6121f160008383611f22565b6001600360008473ffffffffffffffffffffffffffffffffffffffff1673ffffffffffffffffffffffffffffffffffffffff16815260200190815260200160002060008282546122419190613602565b92505081905550816002600083815260200190815260200160002060006101000a81548173ffffffffffffffffffffffffffffffffffffffff021916908373ffffffffffffffffffffffffffffffffffffffff160217905550808273ffffffffffffffffffffffffffffffffffffffff16600073ffffffffffffffffffffffffffffffffffffffff167fddf252ad1be2c89b69c2b068fc378daa952ba7f163c4a11628f55a4df523b3ef60405160405180910390a45050565b828054612306906137cd565b90600052602060002090601f016020900481019282612328576000855561236f565b82601f1061234157805160ff191683800117855561236f565b8280016001018555821561236f579182015b8281111561236e578251825591602001919060010190612353565b5b50905061237c9190612380565b5090565b5b80821115612399576000816000905550600101612381565b5090565b60006123b06123ab8461357a565b613549565b9050828152602081018484840111156123c857600080fd5b6123d384828561378b565b509392505050565b6000813590506123ea81613946565b92915050565b6000813590506123ff8161395d565b92915050565b60008135905061241481613974565b92915050565b60008151905061242981613974565b92915050565b600082601f83011261244057600080fd5b813561245084826020860161239d565b91505092915050565b6000813590506124688161398b565b92915050565b60006020828403121561248057600080fd5b600061248e848285016123db565b91505092915050565b600080604083850312156124aa57600080fd5b60006124b8858286016123db565b92505060206124c9858286016123db565b9150509250929050565b6000806000606084860312156124e857600080fd5b60006124f6868287016123db565b9350506020612507868287016123db565b925050604061251886828701612459565b9150509250925092565b6000806000806080858703121561253857600080fd5b6000612546878288016123db565b9450506020612557878288016123db565b935050604061256887828801612459565b925050606085013567ffffffffffffffff81111561258557600080fd5b6125918782880161242f565b91505092959194509250565b600080604083850312156125b057600080fd5b60006125be858286016123db565b92505060206125cf858286016123f0565b9150509250929050565b600080604083850312156125ec57600080fd5b60006125fa858286016123db565b925050602061260b85828601612459565b9150509250929050565b60006020828403121561262757600080fd5b600061263584828501612405565b91505092915050565b60006020828403121561265057600080fd5b600061265e8482850161241a565b91505092915050565b60006020828403121561267957600080fd5b600061268784828501612459565b91505092915050565b61269981613717565b82525050565b6126a881613729565b82525050565b60006126b9826135bf565b6126c381856135d5565b93506126d381856020860161379a565b6126dc81613935565b840191505092915050565b60006126f2826135ca565b6126fc81856135e6565b935061270c81856020860161379a565b61271581613935565b840191505092915050565b600061272b826135ca565b61273581856135f7565b935061274581856020860161379a565b80840191505092915050565b6000815461275e816137cd565b61276881866135f7565b945060018216600081146127835760018114612794576127c7565b60ff198316865281860193506127c7565b61279d856135aa565b60005b838110156127bf578154818901526001820191506020810190506127a0565b838801955050505b50505092915050565b60006127dd6032836135e6565b91507f4552433732313a207472616e7366657220746f206e6f6e20455243373231526560008301527f63656976657220696d706c656d656e74657200000000000000000000000000006020830152604082019050919050565b6000612843601c836135e6565b91507f4552433732313a20746f6b656e20616c7265616479206d696e746564000000006000830152602082019050919050565b6000612883600a836135f7565b91507f54484952445f574f5244000000000000000000000000000000000000000000006000830152600a82019050919050565b60006128c36024836135e6565b91507f4552433732313a207472616e7366657220746f20746865207a65726f2061646460008301527f72657373000000000000000000000000000000000000000000000000000000006020830152604082019050919050565b60006129296019836135e6565b91507f4552433732313a20617070726f766520746f2063616c6c6572000000000000006000830152602082019050919050565b60006129696063836135f7565b91507f222c20226465736372697074696f6e223a20224120686967686c79206163636c60008301527f61696d656420636f6c6c656374696f6e206f6620737175617265732e222c202260208301527f696d616765223a2022646174613a696d6167652f7376672b786d6c3b6261736560408301527f36342c00000000000000000000000000000000000000000000000000000000006060830152606382019050919050565b6000612a1b600b836135f7565b91507f5345434f4e445f574f52440000000000000000000000000000000000000000006000830152600b82019050919050565b6000612a5b602c836135e6565b91507f4552433732313a206f70657261746f7220717565727920666f72206e6f6e657860008301527f697374656e7420746f6b656e00000000000000000000000000000000000000006020830152604082019050919050565b6000612ac1600d836135f7565b91507f3c2f746578743e3c2f7376673e000000000000000000000000000000000000006000830152600d82019050919050565b6000612b016038836135e6565b91507f4552433732313a20617070726f76652063616c6c6572206973206e6f74206f7760008301527f6e6572206e6f7220617070726f76656420666f7220616c6c00000000000000006020830152604082019050919050565b6000612b67602a836135e6565b91507f4552433732313a2062616c616e636520717565727920666f7220746865207a6560008301527f726f2061646472657373000000000000000000000000000000000000000000006020830152604082019050919050565b6000612bcd6029836135e6565b91507f4552433732313a206f776e657220717565727920666f72206e6f6e657869737460008301527f656e7420746f6b656e00000000000000000000000000000000000000000000006020830152604082019050919050565b6000612c33602e836135e6565b91507f45524337323155524953746f726167653a2055524920736574206f66206e6f6e60008301527f6578697374656e7420746f6b656e0000000000000000000000000000000000006020830152604082019050919050565b6000612c996002836135f7565b91507f227d0000000000000000000000000000000000000000000000000000000000006000830152600282019050919050565b6000612cd96020836135e6565b91507f4552433732313a206d696e7420746f20746865207a65726f20616464726573736000830152602082019050919050565b6000612d196031836135e6565b91507f45524337323155524953746f726167653a2055524920717565727920666f722060008301527f6e6f6e6578697374656e7420746f6b656e0000000000000000000000000000006020830152604082019050919050565b6000612d7f602c836135e6565b91507f4552433732313a20617070726f76656420717565727920666f72206e6f6e657860008301527f697374656e7420746f6b656e00000000000000000000000000000000000000006020830152604082019050919050565b6000612de56029836135e6565b91507f4552433732313a207472616e73666572206f6620746f6b656e2074686174206960008301527f73206e6f74206f776e00000000000000000000000000000000000000000000006020830152604082019050919050565b6000612e4b602f836135e6565b91507f4552433732314d657461646174613a2055524920717565727920666f72206e6f60008301527f6e6578697374656e7420746f6b656e00000000000000000000000000000000006020830152604082019050919050565b6000612eb1600a836135f7565b91507f7b226e616d65223a2022000000000000000000000000000000000000000000006000830152600a82019050919050565b6000612ef16021836135e6565b91507f4552433732313a20617070726f76616c20746f2063757272656e74206f776e6560008301527f72000000000000000000000000000000000000000000000000000000000000006020830152604082019050919050565b6000612f57600a836135f7565b91507f46495253545f574f5244000000000000000000000000000000000000000000006000830152600a82019050919050565b6000612f97601d836135f7565b91507f646174613a6170706c69636174696f6e2f6a736f6e3b6261736536342c0000006000830152601d82019050919050565b6000612fd76031836135e6565b91507f4552433732313a207472616e736665722063616c6c6572206973206e6f74206f60008301527f776e6572206e6f7220617070726f7665640000000000000000000000000000006020830152604082019050919050565b600061303d6005836135f7565b91507f434f4c4f520000000000000000000000000000000000000000000000000000006000830152600582019050919050565b61307981613781565b82525050565b600061308b8284612720565b915081905092915050565b60006130a28285612720565b91506130ae8284612720565b91508190509392505050565b60006130c68286612720565b91506130d28285612720565b91506130de8284612720565b9150819050949350505050565b60006130f78287612751565b91506131038286612720565b915061310f8285612751565b915061311b8284612720565b915061312682612ab4565b915081905095945050505050565b600061313f82612876565b915061314b8284612720565b915081905092915050565b600061316182612a0e565b915061316d8284612720565b915081905092915050565b600061318382612ea4565b915061318f8285612720565b915061319a8261295c565b91506131a68284612720565b91506131b182612c8c565b91508190509392505050565b60006131c882612f4a565b91506131d48284612720565b915081905092915050565b60006131ea82612f8a565b91506131f68284612720565b915081905092915050565b600061320c82613030565b91506132188284612720565b915081905092915050565b60006020820190506132386000830184612690565b92915050565b60006080820190506132536000830187612690565b6132606020830186612690565b61326d6040830185613070565b818103606083015261327f81846126ae565b905095945050505050565b600060408201905061329f6000830185612690565b6132ac6020830184613070565b9392505050565b60006020820190506132c8600083018461269f565b92915050565b600060208201905081810360008301526132e881846126e7565b905092915050565b6000606082019050818103600083015261330a81866126e7565b90506133196020830185613070565b6133266040830184612690565b949350505050565b60006020820190508181036000830152613347816127d0565b9050919050565b6000602082019050818103600083015261336781612836565b9050919050565b60006020820190508181036000830152613387816128b6565b9050919050565b600060208201905081810360008301526133a78161291c565b9050919050565b600060208201905081810360008301526133c781612a4e565b9050919050565b600060208201905081810360008301526133e781612af4565b9050919050565b6000602082019050818103600083015261340781612b5a565b9050919050565b6000602082019050818103600083015261342781612bc0565b9050919050565b6000602082019050818103600083015261344781612c26565b9050919050565b6000602082019050818103600083015261346781612ccc565b9050919050565b6000602082019050818103600083015261348781612d0c565b9050919050565b600060208201905081810360008301526134a781612d72565b9050919050565b600060208201905081810360008301526134c781612dd8565b9050919050565b600060208201905081810360008301526134e781612e3e565b9050919050565b6000602082019050818103600083015261350781612ee4565b9050919050565b6000602082019050818103600083015261352781612fca565b9050919050565b60006020820190506135436000830184613070565b92915050565b6000604051905081810181811067ffffffffffffffff821117156135705761356f613906565b5b8060405250919050565b600067ffffffffffffffff82111561359557613594613906565b5b601f19601f8301169050602081019050919050565b60008190508160005260206000209050919050565b600081519050919050565b600081519050919050565b600082825260208201905092915050565b600082825260208201905092915050565b600081905092915050565b600061360d82613781565b915061361883613781565b9250827fffffffffffffffffffffffffffffffffffffffffffffffffffffffffffffffff0382111561364d5761364c613879565b5b828201905092915050565b600061366382613781565b915061366e83613781565b92508261367e5761367d6138a8565b5b828204905092915050565b600061369482613781565b915061369f83613781565b9250817fffffffffffffffffffffffffffffffffffffffffffffffffffffffffffffffff04831182151516156136d8576136d7613879565b5b828202905092915050565b60006136ee82613781565b91506136f983613781565b92508282101561370c5761370b613879565b5b828203905092915050565b600061372282613761565b9050919050565b60008115159050919050565b60007fffffffff0000000000000000000000000000000000000000000000000000000082169050919050565b600073ffffffffffffffffffffffffffffffffffffffff82169050919050565b6000819050919050565b82818337600083830152505050565b60005b838110156137b857808201518184015260208101905061379d565b838111156137c7576000848401525b50505050565b600060028204905060018216806137e557607f821691505b602082108114156137f9576137f86138d7565b5b50919050565b600061380a82613781565b91507fffffffffffffffffffffffffffffffffffffffffffffffffffffffffffffffff82141561383d5761383c613879565b5b600182019050919050565b600061385382613781565b915061385e83613781565b92508261386e5761386d6138a8565b5b828206905092915050565b7f4e487b7100000000000000000000000000000000000000000000000000000000600052601160045260246000fd5b7f4e487b7100000000000000000000000000000000000000000000000000000000600052601260045260246000fd5b7f4e487b7100000000000000000000000000000000000000000000000000000000600052602260045260246000fd5b7f4e487b7100000000000000000000000000000000000000000000000000000000600052604160045260246000fd5b6000601f19601f8301169050919050565b61394f81613717565b811461395a57600080fd5b50565b61396681613729565b811461397157600080fd5b50565b61397d81613735565b811461398857600080fd5b50565b61399481613781565b811461399f57600080fd5b5056fe416e204e465420772f20494420257320686173206265656e206d696e74656420746f2025734142434445464748494a4b4c4d4e4f505152535455565758595a6162636465666768696a6b6c6d6e6f707172737475767778797a303132333435363738392b2fa2646970667358221220bae63e90de200c276237f0fc15eb20f836d2912dcd7ef99c53b6e57a0445489964736f6c634300080000333c73766720786d6c6e733d27687474703a2f2f7777772e77332e6f72672f323030302f73766727207072657365727665417370656374526174696f3d27784d696e594d696e206d656574272076696577426f783d273020302033353020333530273e3c7374796c653e2e62617365207b2066696c6c3a2077686974653b20666f6e742d66616d696c793a2073657269663b20666f6e742d73697a653a20323470783b207d3c2f7374796c653e3c726563742077696474683d273130302527206865696768743d2731303025272066696c6c3d27272f3e3c7465787420783d273530252720793d273530252720636c6173733d27626173652720646f6d696e616e742d626173656c696e653d276d6964646c652720746578742d616e63686f723d276d6964646c65273e",
  "linkReferences": {},
  "deployedLinkReferences": {}
}